{
  "contractName": "Market",
  "abi": [
    {
      "inputs": [],
      "stateMutability": "nonpayable",
      "type": "constructor"
    },
    {
      "anonymous": false,
      "inputs": [
        {
          "indexed": true,
          "internalType": "uint256",
          "name": "itemId",
          "type": "uint256"
        },
        {
          "indexed": true,
          "internalType": "address",
          "name": "nftContract",
          "type": "address"
        },
        {
          "indexed": true,
          "internalType": "uint256",
          "name": "tokenId",
          "type": "uint256"
        },
        {
          "indexed": false,
          "internalType": "address",
          "name": "seller",
          "type": "address"
        },
        {
          "indexed": false,
          "internalType": "address",
          "name": "owner",
          "type": "address"
        },
        {
          "indexed": false,
          "internalType": "uint256",
          "name": "price",
          "type": "uint256"
        },
        {
          "indexed": false,
          "internalType": "bool",
          "name": "sold",
          "type": "bool"
        }
      ],
      "name": "MarketItemCreated",
      "type": "event"
    },
    {
      "anonymous": false,
      "inputs": [
        {
          "indexed": true,
          "internalType": "uint256",
          "name": "itemId",
          "type": "uint256"
        },
        {
          "indexed": false,
          "internalType": "address",
          "name": "seller",
          "type": "address"
        },
        {
          "indexed": false,
          "internalType": "address",
          "name": "buyer",
          "type": "address"
        },
        {
          "indexed": false,
          "internalType": "uint256",
          "name": "price",
          "type": "uint256"
        }
      ],
      "name": "MarketItemSold",
      "type": "event"
    },
    {
      "inputs": [],
      "name": "owner",
      "outputs": [
        {
          "internalType": "address",
          "name": "",
          "type": "address"
        }
      ],
      "stateMutability": "view",
      "type": "function",
      "constant": true
    },
    {
      "inputs": [
        {
          "internalType": "address",
          "name": "nftContract",
          "type": "address"
        },
        {
          "internalType": "uint256",
          "name": "tokenId",
          "type": "uint256"
        },
        {
          "internalType": "uint256",
          "name": "price",
          "type": "uint256"
        }
      ],
      "name": "createMarketItem",
      "outputs": [],
      "stateMutability": "payable",
      "type": "function",
      "payable": true
    },
    {
      "inputs": [
        {
          "internalType": "address",
          "name": "nftContract",
          "type": "address"
        },
        {
          "internalType": "uint256",
          "name": "itemId",
          "type": "uint256"
        }
      ],
      "name": "createMarketSale",
      "outputs": [],
      "stateMutability": "payable",
      "type": "function",
      "payable": true
    },
    {
      "inputs": [
        {
          "internalType": "address",
          "name": "nftContract",
          "type": "address"
        },
        {
          "internalType": "uint256",
          "name": "itemId",
          "type": "uint256"
        }
      ],
      "name": "cancelMarketItem",
      "outputs": [],
      "stateMutability": "nonpayable",
      "type": "function"
    }
  ],
  "bytecode": "0x608060405234801561001057600080fd5b50600160008190555033600260006101000a81548173ffffffffffffffffffffffffffffffffffffffff021916908373ffffffffffffffffffffffffffffffffffffffff160217905550610f30806100696000396000f3fe60806040526004361061005c576000357c01000000000000000000000000000000000000000000000000000000009004806358eb2df5146100615780638da5cb5b1461007d578063b3e3c42f146100a8578063c23b139e146100d1575b600080fd5b61007b60048036038101906100769190610aae565b6100ed565b005b34801561008957600080fd5b50610092610428565b60405161009f9190610b10565b60405180910390f35b3480156100b457600080fd5b506100cf60048036038101906100ca9190610b2b565b61044e565b005b6100eb60048036038101906100e69190610b2b565b6106b0565b005b600260005403610132576040517f08c379a000000000000000000000000000000000000000000000000000000000815260040161012990610bc8565b60405180910390fd5b60026000819055506000811161017d576040517f08c379a000000000000000000000000000000000000000000000000000000000815260040161017490610c34565b60405180910390fd5b61018760016109f1565b60006101936001610a07565b90506040518060e001604052808281526020018573ffffffffffffffffffffffffffffffffffffffff1681526020018481526020013373ffffffffffffffffffffffffffffffffffffffff168152602001600073ffffffffffffffffffffffffffffffffffffffff16815260200183815260200160001515815250600360008381526020019081526020016000206000820151816000015560208201518160010160006101000a81548173ffffffffffffffffffffffffffffffffffffffff021916908373ffffffffffffffffffffffffffffffffffffffff1602179055506040820151816002015560608201518160030160006101000a81548173ffffffffffffffffffffffffffffffffffffffff021916908373ffffffffffffffffffffffffffffffffffffffff16021790555060808201518160040160006101000a81548173ffffffffffffffffffffffffffffffffffffffff021916908373ffffffffffffffffffffffffffffffffffffffff16021790555060a0820151816005015560c08201518160060160006101000a81548160ff0219169083151502179055509050508373ffffffffffffffffffffffffffffffffffffffff166323b872dd3330866040518463ffffffff167c010000000000000000000000000000000000000000000000000000000002815260040161039093929190610c63565b600060405180830381600087803b1580156103aa57600080fd5b505af11580156103be573d6000803e3d6000fd5b50505050828473ffffffffffffffffffffffffffffffffffffffff16827f045dfa01dcba2b36aba1d3dc4a874f4b0c5d2fbeb8d2c4b34a7d88c8d8f929d13360008760006040516104129493929190610cb5565b60405180910390a4506001600081905550505050565b600260009054906101000a900473ffffffffffffffffffffffffffffffffffffffff1681565b600260005403610493576040517f08c379a000000000000000000000000000000000000000000000000000000000815260040161048a90610bc8565b60405180910390fd5b600260008190555060006003600083815260200190815260200160002060020154905060006003600084815260200190815260200160002060060160009054906101000a900460ff1690506003600084815260200190815260200160002060030160009054906101000a900473ffffffffffffffffffffffffffffffffffffffff1673ffffffffffffffffffffffffffffffffffffffff163373ffffffffffffffffffffffffffffffffffffffff1614610582576040517f08c379a000000000000000000000000000000000000000000000000000000000815260040161057990610d46565b60405180910390fd5b600115158115150361059357600080fd5b8373ffffffffffffffffffffffffffffffffffffffff166323b872dd3033856040518463ffffffff167c01000000000000000000000000000000000000000000000000000000000281526004016105ec93929190610c63565b600060405180830381600087803b15801561060657600080fd5b505af115801561061a573d6000803e3d6000fd5b50505050336003600085815260200190815260200160002060040160006101000a81548173ffffffffffffffffffffffffffffffffffffffff021916908373ffffffffffffffffffffffffffffffffffffffff16021790555060016003600085815260200190815260200160002060060160006101000a81548160ff021916908315150217905550505060016000819055505050565b6002600054036106f5576040517f08c379a00000000000000000000000000000000000000000000000000000000081526004016106ec90610bc8565b60405180910390fd5b600260008190555060006003600083815260200190815260200160002060050154905060006003600084815260200190815260200160002060020154905060006003600085815260200190815260200160002060060160009054906101000a900460ff16905082341461079d576040517f08c379a000000000000000000000000000000000000000000000000000000000815260040161079490610dd8565b60405180910390fd5b60011515811515036107e4576040517f08c379a00000000000000000000000000000000000000000000000000000000081526004016107db90610e44565b60405180910390fd5b837f150ffca547cf855e7fcf5daa82e41c6523b5fb2c8b1309bbb6cf2f87c6ae5a316003600087815260200190815260200160002060030160009054906101000a900473ffffffffffffffffffffffffffffffffffffffff16338660405161084e93929190610ec3565b60405180910390a26003600085815260200190815260200160002060030160009054906101000a900473ffffffffffffffffffffffffffffffffffffffff1673ffffffffffffffffffffffffffffffffffffffff166108fc349081150290604051600060405180830381858888f193505050501580156108d2573d6000803e3d6000fd5b508473ffffffffffffffffffffffffffffffffffffffff166323b872dd3033856040518463ffffffff167c010000000000000000000000000000000000000000000000000000000002815260040161092c93929190610c63565b600060405180830381600087803b15801561094657600080fd5b505af115801561095a573d6000803e3d6000fd5b50505050336003600086815260200190815260200160002060040160006101000a81548173ffffffffffffffffffffffffffffffffffffffff021916908373ffffffffffffffffffffffffffffffffffffffff16021790555060016003600086815260200190815260200160002060060160006101000a81548160ff02191690831515021790555050505060016000819055505050565b6001816000016000828254019250508190555050565b600081600001549050919050565b600080fd5b600073ffffffffffffffffffffffffffffffffffffffff82169050919050565b6000610a4582610a1a565b9050919050565b610a5581610a3a565b8114610a6057600080fd5b50565b600081359050610a7281610a4c565b92915050565b6000819050919050565b610a8b81610a78565b8114610a9657600080fd5b50565b600081359050610aa881610a82565b92915050565b600080600060608486031215610ac757610ac6610a15565b5b6000610ad586828701610a63565b9350506020610ae686828701610a99565b9250506040610af786828701610a99565b9150509250925092565b610b0a81610a3a565b82525050565b6000602082019050610b256000830184610b01565b92915050565b60008060408385031215610b4257610b41610a15565b5b6000610b5085828601610a63565b9250506020610b6185828601610a99565b9150509250929050565b600082825260208201905092915050565b7f5265656e7472616e637947756172643a207265656e7472616e742063616c6c00600082015250565b6000610bb2601f83610b6b565b9150610bbd82610b7c565b602082019050919050565b60006020820190508181036000830152610be181610ba5565b9050919050565b7f5072696365206d7573742062652067726561746572207468616e203000000000600082015250565b6000610c1e601c83610b6b565b9150610c2982610be8565b602082019050919050565b60006020820190508181036000830152610c4d81610c11565b9050919050565b610c5d81610a78565b82525050565b6000606082019050610c786000830186610b01565b610c856020830185610b01565b610c926040830184610c54565b949350505050565b60008115159050919050565b610caf81610c9a565b82525050565b6000608082019050610cca6000830187610b01565b610cd76020830186610b01565b610ce46040830185610c54565b610cf16060830184610ca6565b95945050505050565b7f6d73672073656e6465722068617320746f206265207468652073656c6c657200600082015250565b6000610d30601f83610b6b565b9150610d3b82610cfa565b602082019050919050565b60006020820190508181036000830152610d5f81610d23565b9050919050565b7f506c65617365207375626d6974207468652061736b696e67207072696365206960008201527f6e206f7264657220746f20636f6d706c65746520746865207075726368617365602082015250565b6000610dc2604083610b6b565b9150610dcd82610d66565b604082019050919050565b60006020820190508181036000830152610df181610db5565b9050919050565b7f546869732073616c652068617320616c72656164792066696e69736865640000600082015250565b6000610e2e601e83610b6b565b9150610e3982610df8565b602082019050919050565b60006020820190508181036000830152610e5d81610e21565b9050919050565b6000819050919050565b6000610e89610e84610e7f84610a1a565b610e64565b610a1a565b9050919050565b6000610e9b82610e6e565b9050919050565b6000610ead82610e90565b9050919050565b610ebd81610ea2565b82525050565b6000606082019050610ed86000830186610eb4565b610ee56020830185610b01565b610ef26040830184610c54565b94935050505056fea26469706673582212209408f713a219b0faf491ffcb749b2f03eef9e9a0e7b795bf50eac8fffb7d6d1164736f6c634300080d0033",
  "immutableReferences": {},
  "source": "// SPDX-License-Identifier: MIT\npragma solidity ^0.8.13;\n\nimport \"@openzeppelin/contracts/utils/Counters.sol\";\nimport \"@openzeppelin/contracts/token/ERC721/ERC721.sol\";\nimport \"@openzeppelin/contracts/security/ReentrancyGuard.sol\";\n\ncontract Market is ReentrancyGuard {\n    using Counters for Counters.Counter;\n    Counters.Counter private _itemIds;\n\n    address public owner;\n\n    constructor() {\n        owner = msg.sender;\n    }\n\n    struct MarketItem {\n        uint itemId;\n        address nftContract;\n        uint256 tokenId;\n        address payable seller;\n        address payable owner;\n        uint256 price;\n        bool sold;\n    }\n\n    mapping(uint256 => MarketItem) private idToMarketItem;\n\n    event MarketItemCreated (\n        uint indexed itemId,\n        address indexed nftContract,\n        uint256 indexed tokenId,\n        address seller,\n        address owner,\n        uint256 price,\n        bool sold\n    );\n\n    event MarketItemSold (\n        uint indexed itemId,\n        address seller,\n        address buyer,\n        uint256 price\n    );\n\n    function createMarketItem(\n        address nftContract,\n        uint256 tokenId,\n        uint256 price\n    ) public payable nonReentrant {\n        require(price > 0, \"Price must be greater than 0\");\n\n        _itemIds.increment();\n        uint256 itemId = _itemIds.current();\n\n        idToMarketItem[itemId] =  MarketItem(\n            itemId,\n            nftContract,\n            tokenId,\n            payable(msg.sender),\n            payable(address(0)),\n            price,\n            false\n        );\n\n        IERC721(nftContract).transferFrom(msg.sender, address(this), tokenId);\n\n        emit MarketItemCreated(\n            itemId,\n            nftContract,\n            tokenId,\n            msg.sender,\n            address(0),\n            price,\n            false\n        );\n    }\n\n    function createMarketSale(\n        address nftContract,\n        uint256 itemId\n    ) public payable nonReentrant {\n        uint price = idToMarketItem[itemId].price;\n        uint tokenId = idToMarketItem[itemId].tokenId;\n        bool sold = idToMarketItem[itemId].sold;\n\n        require(msg.value == price, \"Please submit the asking price in order to complete the purchase\");\n        require(sold != true, \"This sale has already finished\");\n\n        emit MarketItemSold(\n            itemId,\n            idToMarketItem[itemId].seller,\n            msg.sender,\n            price\n        );\n\n        idToMarketItem[itemId].seller.transfer(msg.value);\n        IERC721(nftContract).transferFrom(address(this), msg.sender, tokenId);\n        idToMarketItem[itemId].owner = payable(msg.sender);\n        idToMarketItem[itemId].sold = true;\n    }\n\n    function cancelMarketItem(address nftContract, uint256 itemId) public nonReentrant {\n        uint tokenId = idToMarketItem[itemId].tokenId;\n        bool sold = idToMarketItem[itemId].sold;\n\n        require(msg.sender == idToMarketItem[itemId].seller, \"msg sender has to be the seller\");\n        require(sold != true);\n\n        IERC721(nftContract).transferFrom(address(this), msg.sender, tokenId);\n        idToMarketItem[itemId].owner = payable(msg.sender);\n        idToMarketItem[itemId].sold = true;\n    }\n}",
  "sourcePath": "/Users/manhcao/Work/Thesis/room-smart-contract/contracts/Market.sol",
  "compiler": {
    "name": "solc",
    "version": "0.8.13+commit.abaa5c0e.Emscripten.clang"
  },
  "schemaVersion": "3.4.7",
  "updatedAt": "2022-05-11T02:56:40.845Z",
  "networkType": "ethereum",
  "devdoc": {
    "kind": "dev",
    "methods": {},
    "version": 1
  },
  "userdoc": {
    "kind": "user",
    "methods": {},
    "version": 1
  }
}